{
  "contractName": "ZTaylorCoinCrowdsale",
  "abi": [
    {
      "constant": true,
      "inputs": [],
      "name": "rate",
      "outputs": [
        {
          "name": "",
          "type": "uint256"
        }
      ],
      "payable": false,
      "stateMutability": "view",
      "type": "function"
    },
    {
      "constant": true,
      "inputs": [],
      "name": "endTime",
      "outputs": [
        {
          "name": "",
          "type": "uint256"
        }
      ],
      "payable": false,
      "stateMutability": "view",
      "type": "function"
    },
    {
      "constant": true,
      "inputs": [],
      "name": "cap",
      "outputs": [
        {
          "name": "",
          "type": "uint256"
        }
      ],
      "payable": false,
      "stateMutability": "view",
      "type": "function"
    },
    {
      "constant": true,
      "inputs": [],
      "name": "goal",
      "outputs": [
        {
          "name": "",
          "type": "uint256"
        }
      ],
      "payable": false,
      "stateMutability": "view",
      "type": "function"
    },
    {
      "constant": true,
      "inputs": [],
      "name": "weiRaised",
      "outputs": [
        {
          "name": "",
          "type": "uint256"
        }
      ],
      "payable": false,
      "stateMutability": "view",
      "type": "function"
    },
    {
      "constant": false,
      "inputs": [],
      "name": "finalize",
      "outputs": [],
      "payable": false,
      "stateMutability": "nonpayable",
      "type": "function"
    },
    {
      "constant": true,
      "inputs": [],
      "name": "tokensForEcosystem",
      "outputs": [
        {
          "name": "",
          "type": "uint256"
        }
      ],
      "payable": false,
      "stateMutability": "view",
      "type": "function"
    },
    {
      "constant": true,
      "inputs": [],
      "name": "wallet",
      "outputs": [
        {
          "name": "",
          "type": "address"
        }
      ],
      "payable": false,
      "stateMutability": "view",
      "type": "function"
    },
    {
      "constant": true,
      "inputs": [],
      "name": "totalTokensForSale",
      "outputs": [
        {
          "name": "",
          "type": "uint256"
        }
      ],
      "payable": false,
      "stateMutability": "view",
      "type": "function"
    },
    {
      "constant": true,
      "inputs": [],
      "name": "tokensForBounty",
      "outputs": [
        {
          "name": "",
          "type": "uint256"
        }
      ],
      "payable": false,
      "stateMutability": "view",
      "type": "function"
    },
    {
      "constant": true,
      "inputs": [],
      "name": "startTime",
      "outputs": [
        {
          "name": "",
          "type": "uint256"
        }
      ],
      "payable": false,
      "stateMutability": "view",
      "type": "function"
    },
    {
      "constant": true,
      "inputs": [],
      "name": "goalReached",
      "outputs": [
        {
          "name": "",
          "type": "bool"
        }
      ],
      "payable": false,
      "stateMutability": "view",
      "type": "function"
    },
    {
      "constant": true,
      "inputs": [],
      "name": "isFinalized",
      "outputs": [
        {
          "name": "",
          "type": "bool"
        }
      ],
      "payable": false,
      "stateMutability": "view",
      "type": "function"
    },
    {
      "constant": true,
      "inputs": [],
      "name": "owner",
      "outputs": [
        {
          "name": "",
          "type": "address"
        }
      ],
      "payable": false,
      "stateMutability": "view",
      "type": "function"
    },
    {
      "constant": true,
      "inputs": [],
      "name": "totalWeiRaisedDuringPreICO",
      "outputs": [
        {
          "name": "",
          "type": "uint256"
        }
      ],
      "payable": false,
      "stateMutability": "view",
      "type": "function"
    },
    {
      "constant": false,
      "inputs": [],
      "name": "claimRefund",
      "outputs": [],
      "payable": false,
      "stateMutability": "nonpayable",
      "type": "function"
    },
    {
      "constant": true,
      "inputs": [],
      "name": "totalTokensForSaleDuringPreICO",
      "outputs": [
        {
          "name": "",
          "type": "uint256"
        }
      ],
      "payable": false,
      "stateMutability": "view",
      "type": "function"
    },
    {
      "constant": true,
      "inputs": [],
      "name": "stage",
      "outputs": [
        {
          "name": "",
          "type": "uint8"
        }
      ],
      "payable": false,
      "stateMutability": "view",
      "type": "function"
    },
    {
      "constant": true,
      "inputs": [],
      "name": "maxTokens",
      "outputs": [
        {
          "name": "",
          "type": "uint256"
        }
      ],
      "payable": false,
      "stateMutability": "view",
      "type": "function"
    },
    {
      "constant": false,
      "inputs": [
        {
          "name": "beneficiary",
          "type": "address"
        }
      ],
      "name": "buyTokens",
      "outputs": [],
      "payable": true,
      "stateMutability": "payable",
      "type": "function"
    },
    {
      "constant": false,
      "inputs": [
        {
          "name": "newOwner",
          "type": "address"
        }
      ],
      "name": "transferOwnership",
      "outputs": [],
      "payable": false,
      "stateMutability": "nonpayable",
      "type": "function"
    },
    {
      "constant": true,
      "inputs": [],
      "name": "vault",
      "outputs": [
        {
          "name": "",
          "type": "address"
        }
      ],
      "payable": false,
      "stateMutability": "view",
      "type": "function"
    },
    {
      "constant": true,
      "inputs": [],
      "name": "token",
      "outputs": [
        {
          "name": "",
          "type": "address"
        }
      ],
      "payable": false,
      "stateMutability": "view",
      "type": "function"
    },
    {
      "constant": true,
      "inputs": [],
      "name": "tokensForTeam",
      "outputs": [
        {
          "name": "",
          "type": "uint256"
        }
      ],
      "payable": false,
      "stateMutability": "view",
      "type": "function"
    },
    {
      "inputs": [
        {
          "name": "_startTime",
          "type": "uint256"
        },
        {
          "name": "_endTime",
          "type": "uint256"
        },
        {
          "name": "_rate",
          "type": "uint256"
        },
        {
          "name": "_wallet",
          "type": "address"
        },
        {
          "name": "_goal",
          "type": "uint256"
        },
        {
          "name": "_cap",
          "type": "uint256"
        }
      ],
      "payable": false,
      "stateMutability": "nonpayable",
      "type": "constructor"
    },
    {
      "payable": true,
      "stateMutability": "payable",
      "type": "fallback"
    },
    {
      "anonymous": false,
      "inputs": [
        {
          "indexed": false,
          "name": "text",
          "type": "string"
        }
      ],
      "name": "EthTransferred",
      "type": "event"
    },
    {
      "anonymous": false,
      "inputs": [
        {
          "indexed": false,
          "name": "text",
          "type": "string"
        }
      ],
      "name": "EthRefunded",
      "type": "event"
    },
    {
      "anonymous": false,
      "inputs": [],
      "name": "Finalized",
      "type": "event"
    },
    {
      "anonymous": false,
      "inputs": [
        {
          "indexed": true,
          "name": "previousOwner",
          "type": "address"
        },
        {
          "indexed": true,
          "name": "newOwner",
          "type": "address"
        }
      ],
      "name": "OwnershipTransferred",
      "type": "event"
    },
    {
      "anonymous": false,
      "inputs": [
        {
          "indexed": true,
          "name": "purchaser",
          "type": "address"
        },
        {
          "indexed": true,
          "name": "beneficiary",
          "type": "address"
        },
        {
          "indexed": false,
          "name": "value",
          "type": "uint256"
        },
        {
          "indexed": false,
          "name": "amount",
          "type": "uint256"
        }
      ],
      "name": "TokenPurchase",
      "type": "event"
    },
    {
      "constant": false,
      "inputs": [
        {
          "name": "value",
          "type": "uint256"
        }
      ],
      "name": "setCrowdsaleStage",
      "outputs": [],
      "payable": false,
      "stateMutability": "nonpayable",
      "type": "function"
    },
    {
      "constant": false,
      "inputs": [
        {
          "name": "_teamFund",
          "type": "address"
        },
        {
          "name": "_ecosystemFund",
          "type": "address"
        },
        {
          "name": "_bountyFund",
          "type": "address"
        }
      ],
      "name": "finish",
      "outputs": [],
      "payable": false,
      "stateMutability": "nonpayable",
      "type": "function"
    },
    {
      "constant": true,
      "inputs": [],
      "name": "hasEnded",
      "outputs": [
        {
          "name": "",
          "type": "bool"
        }
      ],
      "payable": false,
      "stateMutability": "view",
      "type": "function"
    }
  ],
  "bytecode": "0x60606040526007805460a060020a60ff021990811690915560098054909116905568056bc75e2d63100000600a556801158e460913d00000600b819055678ac7230489e80000600c819055600d55680340aad21b3b700000600e55600f5534156200006957600080fd5b60405160c080620033b78339810160405280805191906020018051919060200180519190602001805191906020018051919060200180519150829050818787878783831015620000b857600080fd5b60008211620000c657600080fd5b600160a060020a0381161515620000dc57600080fd5b620000f464010000000062001055620001e382021704565b60008054600160a060020a0319908116600160a060020a039384161782556001969096556002949094556004929092556003805490941691161790915581116200013d57600080fd5b60065560078054600160a060020a03191633600160a060020a0316179055600081116200016957600080fd5b600354600160a060020a03166200017f6200020b565b600160a060020a039091168152602001604051809103906000f0801515620001a657600080fd5b60098054600160a060020a031916600160a060020a039290921691909117905560085580821115620001d757600080fd5b5050505050506200022d565b6000620001ef6200021c565b604051809103906000f08015156200020657600080fd5b905090565b60405161060c806200205183390190565b604051610d5a806200265d83390190565b611e14806200023d6000396000f300606060405260043610620001615763ffffffff60e060020a6000350416632c4e722e8114620002fd5780633197cbb61462000325578063355274ea146200033b5780634019388314620003515780634042b66f14620003675780634bb278f3146200037d5780634c4cfc3b1462000395578063521eb27314620003ab57806360219c7b14620003dd578063644280e214620003f357806378e9792514620004095780637d3d6522146200041f5780637e02bb0f14620004495780638d4e408314620004775780638da5cb5b146200048d578063a997f82f14620004a3578063abe8014a14620004bc578063b5545a3c14620004d2578063c02aaea114620004e8578063c040e6b814620004fe578063e83157421462000539578063ec8ac4d8146200054f578063ecb70fb71462000565578063f2fde38b146200057b578063fbfa77cf146200059d578063fc0c546a14620005b3578063fde83a3414620005c9575b60006200017a60045434620005df90919063ffffffff16565b9050600060095460a060020a900460ff1660018111156200019757fe5b148015620002105750600f54600080548391600160a060020a03909116906318160ddd90604051602001526040518163ffffffff1660e060020a028152600401602060405180830381600087803b1515620001f157600080fd5b6102c65a03f115156200020357600080fd5b5050506040518051905001115b15620002b457600160a060020a0333163480156108fc0290604051600060405180830381858888f1935050505015156200024957600080fd5b7fc0283f9c45b2118c7ec26e4f4bf06fc486f94a186fb38dc5dff372d9cb709d3760405160208082526010908201527f50726549434f204c696d697420486974000000000000000000000000000000006040808301919091526060909101905180910390a1620002fa565b620002bf3362000619565b600060095460a060020a900460ff166001811115620002da57fe5b1415620002fa57601054620002f6903463ffffffff6200075916565b6010555b50005b34156200030957600080fd5b6200031362000769565b60405190815260200160405180910390f35b34156200033157600080fd5b620003136200076f565b34156200034757600080fd5b6200031362000775565b34156200035d57600080fd5b620003136200077b565b34156200037357600080fd5b6200031362000781565b34156200038957600080fd5b6200039362000787565b005b3415620003a157600080fd5b620003136200082d565b3415620003b757600080fd5b620003c162000833565b604051600160a060020a03909116815260200160405180910390f35b3415620003e957600080fd5b6200031362000842565b3415620003ff57600080fd5b6200031362000848565b34156200041557600080fd5b620003136200084e565b34156200042b57600080fd5b6200043562000854565b604051901515815260200160405180910390f35b34156200045557600080fd5b62000393600160a060020a03600435811690602435811690604435166200085f565b34156200048357600080fd5b6200043562000ac2565b34156200049957600080fd5b620003c162000ad2565b3415620004af57600080fd5b6200039360043562000ae1565b3415620004c857600080fd5b6200031362000bbb565b3415620004de57600080fd5b6200039362000bc1565b3415620004f457600080fd5b6200031362000c52565b34156200050a57600080fd5b6200051462000c58565b604051808260018111156200052557fe5b60ff16815260200191505060405180910390f35b34156200054557600080fd5b6200031362000c68565b62000393600160a060020a036004351662000619565b34156200057157600080fd5b6200043562000c6e565b34156200058757600080fd5b62000393600160a060020a036004351662000c73565b3415620005a957600080fd5b620003c162000d10565b3415620005bf57600080fd5b620003c162000d1f565b3415620005d557600080fd5b6200031362000d2e565b600080831515620005f4576000915062000612565b508282028284828115156200060557fe5b04146200060e57fe5b8091505b5092915050565b600080600160a060020a03831615156200063257600080fd5b6200063c62000d34565b15156200064857600080fd5b6004543492506200066190839063ffffffff620005df16565b60055490915062000679908363ffffffff6200075916565b60055560008054600160a060020a0316906340c10f1990859084906040516020015260405160e060020a63ffffffff8516028152600160a060020a0390921660048301526024820152604401602060405180830381600087803b1515620006df57600080fd5b6102c65a03f11515620006f157600080fd5b505050604051805190505082600160a060020a031633600160a060020a03167f623b3804fa71d67900d064613da8f94b9617215ee90799290593e1745087ad18848460405191825260208201526040908101905180910390a36200075462000d6f565b505050565b6000828201838110156200060e57fe5b60045481565b60025481565b60065481565b60085481565b60055481565b60075433600160a060020a03908116911614620007a357600080fd5b60075460a060020a900460ff1615620007bb57600080fd5b620007c562000c6e565b1515620007d157600080fd5b620007db62000eea565b7f6823b073d48d6e3a7d385eeb601452d680e74bb46afe3255a7d778f3a9b1768160405160405180910390a16007805474ff0000000000000000000000000000000000000000191660a060020a179055565b600b5481565b600354600160a060020a031681565b600e5481565b600d5481565b60015481565b600854600554101590565b600754600090819033600160a060020a039081169116146200088057600080fd5b60075460a060020a900460ff16156200089857600080fd5b60008054600160a060020a0316906318160ddd90604051602001526040518163ffffffff1660e060020a028152600401602060405180830381600087803b1515620008e257600080fd5b6102c65a03f11515620008f457600080fd5b5050506040518051600a54909350831090506200091057600080fd5b81600e5403905060008111156200092a57600b8054820190555b60008054600c54600160a060020a03909116916340c10f199188916040516020015260405160e060020a63ffffffff8516028152600160a060020a0390921660048301526024820152604401602060405180830381600087803b15156200099057600080fd5b6102c65a03f11515620009a257600080fd5b5050506040518051505060008054600b54600160a060020a03909116916340c10f199187916040516020015260405160e060020a63ffffffff8516028152600160a060020a0390921660048301526024820152604401602060405180830381600087803b151562000a1257600080fd5b6102c65a03f1151562000a2457600080fd5b5050506040518051505060008054600d54600160a060020a03909116916340c10f199186916040516020015260405160e060020a63ffffffff8516028152600160a060020a0390921660048301526024820152604401602060405180830381600087803b151562000a9457600080fd5b6102c65a03f1151562000aa657600080fd5b505050604051805190505062000abb62000787565b5050505050565b60075460a060020a900460ff1681565b600754600160a060020a031681565b60075460009033600160a060020a0390811691161462000b0057600080fd5b81151562000b115750600062000b1f565b816001141562000b1f575060015b6009805482919074ff0000000000000000000000000000000000000000191660a060020a83600181111562000b5057fe5b0217905550600060095460a060020a900460ff16600181111562000b7057fe5b141562000b895762000b83600562000fb5565b62000bb7565b600160095460a060020a900460ff16600181111562000ba457fe5b141562000bb75762000bb7600262000fb5565b5050565b60105481565b60075460a060020a900460ff16151562000bda57600080fd5b62000be462000854565b1562000bef57600080fd5b600954600160a060020a031663fa89401a3360405160e060020a63ffffffff8416028152600160a060020a039091166004820152602401600060405180830381600087803b151562000c4057600080fd5b6102c65a03f115156200075457600080fd5b600f5481565b60095460a060020a900460ff1681565b600a5481565b600190565b60075433600160a060020a0390811691161462000c8f57600080fd5b600160a060020a038116151562000ca557600080fd5b600754600160a060020a0380831691167f8be0079c531659141344cd1fd0a4f28419497f9722a3daafe3b4186f6b6457e060405160405180910390a36007805473ffffffffffffffffffffffffffffffffffffffff1916600160a060020a0392909216919091179055565b600954600160a060020a031681565b600054600160a060020a031681565b600c5481565b60008060065462000d51346005546200075990919063ffffffff16565b1115905062000d5f62000fba565b801562000d695750805b91505090565b600060095460a060020a900460ff16600181111562000d8a57fe5b141562000e3157600354600160a060020a03163480156108fc0290604051600060405180830381858888f19350505050151562000dc657600080fd5b7f47af8c4076c54a76f613f82e4296a2c5e2167698d368157a82e62398393e345e6040516020808252601a908201527f666f7277617264696e672066756e647320746f2077616c6c65740000000000006040808301919091526060909101905180910390a162000ee8565b600160095460a060020a900460ff16600181111562000e4c57fe5b141562000ee8577f47af8c4076c54a76f613f82e4296a2c5e2167698d368157a82e62398393e345e60405160208082526024908201527f666f7277617264696e672066756e647320746f20726566756e6461626c6520766040808301919091527f61756c740000000000000000000000000000000000000000000000000000000060608301526080909101905180910390a162000ee862000fec565b565b62000ef462000854565b1562000f5557600954600160a060020a03166343d726d66040518163ffffffff1660e060020a028152600401600060405180830381600087803b151562000f3a57600080fd5b6102c65a03f1151562000f4c57600080fd5b50505062000fab565b600954600160a060020a0316638c52dc416040518163ffffffff1660e060020a028152600401600060405180830381600087803b151562000f9557600080fd5b6102c65a03f1151562000fa757600080fd5b5050505b62000ee862000ee8565b600455565b6000806000600154421015801562000fd457506002544211155b91505034151581801562000fe55750805b9250505090565b600954600160a060020a031663f340fa01343360405160e060020a63ffffffff8516028152600160a060020a0390911660048201526024016000604051808303818588803b15156200103d57600080fd5b6125ee5a03f115156200104f57600080fd5b50505050565b6000620010616200107d565b604051809103906000f08015156200107857600080fd5b905090565b604051610d5a806200108f833901905600606060409081526003805460a060020a60ff02191690558051908101604052600c81527f5a5461796c6f7220436f696e00000000000000000000000000000000000000006020820152600490805161005b9291602001906100c9565b5060408051908101604052600381527f5a54540000000000000000000000000000000000000000000000000000000000602082015260059080516100a39291602001906100c9565b50601260065560038054600160a060020a03191633600160a060020a0316179055610164565b828054600181600116156101000203166002900490600052602060002090601f016020900481019282601f1061010a57805160ff1916838001178555610137565b82800160010185558215610137579182015b8281111561013757825182559160200191906001019061011c565b50610143929150610147565b5090565b61016191905b80821115610143576000815560010161014d565b90565b610be7806101736000396000f3006060604052600436106100e55763ffffffff7c010000000000000000000000000000000000000000000000000000000060003504166305d2035b81146100ea57806306fdde0314610111578063095ea7b31461019b57806318160ddd146101bd57806323b872dd146101e2578063313ce5671461020a57806340c10f191461021d578063661884631461023f57806370a08231146102615780637d64bcb4146102805780638da5cb5b1461029357806395d89b41146102c2578063a9059cbb146102d5578063d73dd623146102f7578063dd62ed3e14610319578063f2fde38b1461033e575b600080fd5b34156100f557600080fd5b6100fd61035f565b604051901515815260200160405180910390f35b341561011c57600080fd5b61012461036f565b60405160208082528190810183818151815260200191508051906020019080838360005b83811015610160578082015183820152602001610148565b50505050905090810190601f16801561018d5780820380516001836020036101000a031916815260200191505b509250505060405180910390f35b34156101a657600080fd5b6100fd600160a060020a036004351660243561040d565b34156101c857600080fd5b6101d0610479565b60405190815260200160405180910390f35b34156101ed57600080fd5b6100fd600160a060020a036004358116906024351660443561047f565b341561021557600080fd5b6101d0610601565b341561022857600080fd5b6100fd600160a060020a0360043516602435610607565b341561024a57600080fd5b6100fd600160a060020a0360043516602435610714565b341561026c57600080fd5b6101d0600160a060020a036004351661080e565b341561028b57600080fd5b6100fd610829565b341561029e57600080fd5b6102a66108b4565b604051600160a060020a03909116815260200160405180910390f35b34156102cd57600080fd5b6101246108c3565b34156102e057600080fd5b6100fd600160a060020a036004351660243561092e565b341561030257600080fd5b6100fd600160a060020a0360043516602435610a29565b341561032457600080fd5b6101d0600160a060020a0360043581169060243516610acd565b341561034957600080fd5b61035d600160a060020a0360043516610af8565b005b60035460a060020a900460ff1681565b60048054600181600116156101000203166002900480601f0160208091040260200160405190810160405280929190818152602001828054600181600116156101000203166002900480156104055780601f106103da57610100808354040283529160200191610405565b820191906000526020600020905b8154815290600101906020018083116103e857829003601f168201915b505050505081565b600160a060020a03338116600081815260026020908152604080832094871680845294909152808220859055909291907f8c5be1e5ebec7d5bd14f71427d1e84f3dd0314c0f7b2291e5b200ac8c7c3b9259085905190815260200160405180910390a350600192915050565b60005481565b6000600160a060020a038316151561049657600080fd5b600160a060020a0384166000908152600160205260409020548211156104bb57600080fd5b600160a060020a03808516600090815260026020908152604080832033909416835292905220548211156104ee57600080fd5b600160a060020a038416600090815260016020526040902054610517908363ffffffff610b9316565b600160a060020a03808616600090815260016020526040808220939093559085168152205461054c908363ffffffff610ba516565b600160a060020a03808516600090815260016020908152604080832094909455878316825260028152838220339093168252919091522054610594908363ffffffff610b9316565b600160a060020a03808616600081815260026020908152604080832033861684529091529081902093909355908516917fddf252ad1be2c89b69c2b068fc378daa952ba7f163c4a11628f55a4df523b3ef9085905190815260200160405180910390a35060019392505050565b60065481565b60035460009033600160a060020a0390811691161461062557600080fd5b60035460a060020a900460ff161561063c57600080fd5b60005461064f908363ffffffff610ba516565b6000908155600160a060020a03841681526001602052604090205461067a908363ffffffff610ba516565b600160a060020a0384166000818152600160205260409081902092909255907f0f6798a560793a54c3bcfe86a93cde1e73087d944c0ea20544137d41213968859084905190815260200160405180910390a2600160a060020a03831660007fddf252ad1be2c89b69c2b068fc378daa952ba7f163c4a11628f55a4df523b3ef8460405190815260200160405180910390a350600192915050565b600160a060020a0333811660009081526002602090815260408083209386168352929052908120548083111561077157600160a060020a0333811660009081526002602090815260408083209388168352929052908120556107a8565b610781818463ffffffff610b9316565b600160a060020a033381166000908152600260209081526040808320938916835292905220555b600160a060020a0333811660008181526002602090815260408083209489168084529490915290819020547f8c5be1e5ebec7d5bd14f71427d1e84f3dd0314c0f7b2291e5b200ac8c7c3b925915190815260200160405180910390a35060019392505050565b600160a060020a031660009081526001602052604090205490565b60035460009033600160a060020a0390811691161461084757600080fd5b60035460a060020a900460ff161561085e57600080fd5b6003805474ff0000000000000000000000000000000000000000191660a060020a1790557fae5184fba832cb2b1f702aca6117b8d265eaf03ad33eb133f19dde0f5920fa0860405160405180910390a150600190565b600354600160a060020a031681565b60058054600181600116156101000203166002900480601f0160208091040260200160405190810160405280929190818152602001828054600181600116156101000203166002900480156104055780601f106103da57610100808354040283529160200191610405565b6000600160a060020a038316151561094557600080fd5b600160a060020a03331660009081526001602052604090205482111561096a57600080fd5b600160a060020a033316600090815260016020526040902054610993908363ffffffff610b9316565b600160a060020a0333811660009081526001602052604080822093909355908516815220546109c8908363ffffffff610ba516565b600160a060020a0380851660008181526001602052604090819020939093559133909116907fddf252ad1be2c89b69c2b068fc378daa952ba7f163c4a11628f55a4df523b3ef9085905190815260200160405180910390a350600192915050565b600160a060020a033381166000908152600260209081526040808320938616835292905290812054610a61908363ffffffff610ba516565b600160a060020a0333811660008181526002602090815260408083209489168084529490915290819020849055919290917f8c5be1e5ebec7d5bd14f71427d1e84f3dd0314c0f7b2291e5b200ac8c7c3b92591905190815260200160405180910390a350600192915050565b600160a060020a03918216600090815260026020908152604080832093909416825291909152205490565b60035433600160a060020a03908116911614610b1357600080fd5b600160a060020a0381161515610b2857600080fd5b600354600160a060020a0380831691167f8be0079c531659141344cd1fd0a4f28419497f9722a3daafe3b4186f6b6457e060405160405180910390a36003805473ffffffffffffffffffffffffffffffffffffffff1916600160a060020a0392909216919091179055565b600082821115610b9f57fe5b50900390565b600082820183811015610bb457fe5b93925050505600a165627a7a7230582079e2c95125c4edc69116e9bbe837c9d2deb34e47f174868eb3fe606783dc19dd0029a165627a7a7230582088428a787ffdfb9b5d77030b4a8747371e0af5157706d19e19b80c34654b5a1500296060604052341561000f57600080fd5b60405160208061060c8339810160405280805160008054600160a060020a03191633600160a060020a039081169190911790915590925082161515905061005557600080fd5b60028054600160a060020a031916600160a060020a03929092169190911760a060020a60ff021916905561057e8061008e6000396000f3006060604052600436106100985763ffffffff7c010000000000000000000000000000000000000000000000000000000060003504166343d726d6811461009d578063521eb273146100b25780638c52dc41146100e15780638da5cb5b146100f4578063c19d93fb14610107578063cb13cddb1461013e578063f2fde38b1461016f578063f340fa011461018e578063fa89401a146101a2575b600080fd5b34156100a857600080fd5b6100b06101c1565b005b34156100bd57600080fd5b6100c561029c565b604051600160a060020a03909116815260200160405180910390f35b34156100ec57600080fd5b6100b06102ab565b34156100ff57600080fd5b6100c561033c565b341561011257600080fd5b61011a61034b565b6040518082600281111561012a57fe5b60ff16815260200191505060405180910390f35b341561014957600080fd5b61015d600160a060020a036004351661035b565b60405190815260200160405180910390f35b341561017a57600080fd5b6100b0600160a060020a036004351661036d565b6100b0600160a060020a0360043516610408565b34156101ad57600080fd5b6100b0600160a060020a036004351661048c565b60005433600160a060020a039081169116146101dc57600080fd5b60006002805460a060020a900460ff16908111156101f657fe5b1461020057600080fd5b6002805474ff00000000000000000000000000000000000000001916740200000000000000000000000000000000000000001790557f1cdde67b72a90f19919ac732a437ac2f7a10fc128d28c2a6e525d89ce5cd9d3a60405160405180910390a1600254600160a060020a039081169030163180156108fc0290604051600060405180830381858888f19350505050151561029a57600080fd5b565b600254600160a060020a031681565b60005433600160a060020a039081169116146102c657600080fd5b60006002805460a060020a900460ff16908111156102e057fe5b146102ea57600080fd5b6002805474ff0000000000000000000000000000000000000000191660a060020a1790557f599d8e5a83cffb867d051598c4d70e805d59802d8081c1c7d6dffc5b6aca2b8960405160405180910390a1565b600054600160a060020a031681565b60025460a060020a900460ff1681565b60016020526000908152604090205481565b60005433600160a060020a0390811691161461038857600080fd5b600160a060020a038116151561039d57600080fd5b600054600160a060020a0380831691167f8be0079c531659141344cd1fd0a4f28419497f9722a3daafe3b4186f6b6457e060405160405180910390a36000805473ffffffffffffffffffffffffffffffffffffffff1916600160a060020a0392909216919091179055565b60005433600160a060020a0390811691161461042357600080fd5b60006002805460a060020a900460ff169081111561043d57fe5b1461044757600080fd5b600160a060020a038116600090815260016020526040902054610470903463ffffffff61053c16565b600160a060020a03909116600090815260016020526040902055565b600060016002805460a060020a900460ff16908111156104a857fe5b146104b257600080fd5b50600160a060020a038116600081815260016020526040808220805492905590919082156108fc0290839051600060405180830381858888f1935050505015156104fb57600080fd5b81600160a060020a03167fd7dee2702d63ad89917b6a4da9981c90c4d24f8c2bdfd64c604ecae57d8d06518260405190815260200160405180910390a25050565b60008282018381101561054b57fe5b93925050505600a165627a7a723058205c00d36dc3cacb69bf27e725cc0c231c96132969330fb131b07f35782fbb8b7a0029606060409081526003805460a060020a60ff02191690558051908101604052600c81527f5a5461796c6f7220436f696e00000000000000000000000000000000000000006020820152600490805161005b9291602001906100c9565b5060408051908101604052600381527f5a54540000000000000000000000000000000000000000000000000000000000602082015260059080516100a39291602001906100c9565b50601260065560038054600160a060020a03191633600160a060020a0316179055610164565b828054600181600116156101000203166002900490600052602060002090601f016020900481019282601f1061010a57805160ff1916838001178555610137565b82800160010185558215610137579182015b8281111561013757825182559160200191906001019061011c565b50610143929150610147565b5090565b61016191905b80821115610143576000815560010161014d565b90565b610be7806101736000396000f3006060604052600436106100e55763ffffffff7c010000000000000000000000000000000000000000000000000000000060003504166305d2035b81146100ea57806306fdde0314610111578063095ea7b31461019b57806318160ddd146101bd57806323b872dd146101e2578063313ce5671461020a57806340c10f191461021d578063661884631461023f57806370a08231146102615780637d64bcb4146102805780638da5cb5b1461029357806395d89b41146102c2578063a9059cbb146102d5578063d73dd623146102f7578063dd62ed3e14610319578063f2fde38b1461033e575b600080fd5b34156100f557600080fd5b6100fd61035f565b604051901515815260200160405180910390f35b341561011c57600080fd5b61012461036f565b60405160208082528190810183818151815260200191508051906020019080838360005b83811015610160578082015183820152602001610148565b50505050905090810190601f16801561018d5780820380516001836020036101000a031916815260200191505b509250505060405180910390f35b34156101a657600080fd5b6100fd600160a060020a036004351660243561040d565b34156101c857600080fd5b6101d0610479565b60405190815260200160405180910390f35b34156101ed57600080fd5b6100fd600160a060020a036004358116906024351660443561047f565b341561021557600080fd5b6101d0610601565b341561022857600080fd5b6100fd600160a060020a0360043516602435610607565b341561024a57600080fd5b6100fd600160a060020a0360043516602435610714565b341561026c57600080fd5b6101d0600160a060020a036004351661080e565b341561028b57600080fd5b6100fd610829565b341561029e57600080fd5b6102a66108b4565b604051600160a060020a03909116815260200160405180910390f35b34156102cd57600080fd5b6101246108c3565b34156102e057600080fd5b6100fd600160a060020a036004351660243561092e565b341561030257600080fd5b6100fd600160a060020a0360043516602435610a29565b341561032457600080fd5b6101d0600160a060020a0360043581169060243516610acd565b341561034957600080fd5b61035d600160a060020a0360043516610af8565b005b60035460a060020a900460ff1681565b60048054600181600116156101000203166002900480601f0160208091040260200160405190810160405280929190818152602001828054600181600116156101000203166002900480156104055780601f106103da57610100808354040283529160200191610405565b820191906000526020600020905b8154815290600101906020018083116103e857829003601f168201915b505050505081565b600160a060020a03338116600081815260026020908152604080832094871680845294909152808220859055909291907f8c5be1e5ebec7d5bd14f71427d1e84f3dd0314c0f7b2291e5b200ac8c7c3b9259085905190815260200160405180910390a350600192915050565b60005481565b6000600160a060020a038316151561049657600080fd5b600160a060020a0384166000908152600160205260409020548211156104bb57600080fd5b600160a060020a03808516600090815260026020908152604080832033909416835292905220548211156104ee57600080fd5b600160a060020a038416600090815260016020526040902054610517908363ffffffff610b9316565b600160a060020a03808616600090815260016020526040808220939093559085168152205461054c908363ffffffff610ba516565b600160a060020a03808516600090815260016020908152604080832094909455878316825260028152838220339093168252919091522054610594908363ffffffff610b9316565b600160a060020a03808616600081815260026020908152604080832033861684529091529081902093909355908516917fddf252ad1be2c89b69c2b068fc378daa952ba7f163c4a11628f55a4df523b3ef9085905190815260200160405180910390a35060019392505050565b60065481565b60035460009033600160a060020a0390811691161461062557600080fd5b60035460a060020a900460ff161561063c57600080fd5b60005461064f908363ffffffff610ba516565b6000908155600160a060020a03841681526001602052604090205461067a908363ffffffff610ba516565b600160a060020a0384166000818152600160205260409081902092909255907f0f6798a560793a54c3bcfe86a93cde1e73087d944c0ea20544137d41213968859084905190815260200160405180910390a2600160a060020a03831660007fddf252ad1be2c89b69c2b068fc378daa952ba7f163c4a11628f55a4df523b3ef8460405190815260200160405180910390a350600192915050565b600160a060020a0333811660009081526002602090815260408083209386168352929052908120548083111561077157600160a060020a0333811660009081526002602090815260408083209388168352929052908120556107a8565b610781818463ffffffff610b9316565b600160a060020a033381166000908152600260209081526040808320938916835292905220555b600160a060020a0333811660008181526002602090815260408083209489168084529490915290819020547f8c5be1e5ebec7d5bd14f71427d1e84f3dd0314c0f7b2291e5b200ac8c7c3b925915190815260200160405180910390a35060019392505050565b600160a060020a031660009081526001602052604090205490565b60035460009033600160a060020a0390811691161461084757600080fd5b60035460a060020a900460ff161561085e57600080fd5b6003805474ff0000000000000000000000000000000000000000191660a060020a1790557fae5184fba832cb2b1f702aca6117b8d265eaf03ad33eb133f19dde0f5920fa0860405160405180910390a150600190565b600354600160a060020a031681565b60058054600181600116156101000203166002900480601f0160208091040260200160405190810160405280929190818152602001828054600181600116156101000203166002900480156104055780601f106103da57610100808354040283529160200191610405565b6000600160a060020a038316151561094557600080fd5b600160a060020a03331660009081526001602052604090205482111561096a57600080fd5b600160a060020a033316600090815260016020526040902054610993908363ffffffff610b9316565b600160a060020a0333811660009081526001602052604080822093909355908516815220546109c8908363ffffffff610ba516565b600160a060020a0380851660008181526001602052604090819020939093559133909116907fddf252ad1be2c89b69c2b068fc378daa952ba7f163c4a11628f55a4df523b3ef9085905190815260200160405180910390a350600192915050565b600160a060020a033381166000908152600260209081526040808320938616835292905290812054610a61908363ffffffff610ba516565b600160a060020a0333811660008181526002602090815260408083209489168084529490915290819020849055919290917f8c5be1e5ebec7d5bd14f71427d1e84f3dd0314c0f7b2291e5b200ac8c7c3b92591905190815260200160405180910390a350600192915050565b600160a060020a03918216600090815260026020908152604080832093909416825291909152205490565b60035433600160a060020a03908116911614610b1357600080fd5b600160a060020a0381161515610b2857600080fd5b600354600160a060020a0380831691167f8be0079c531659141344cd1fd0a4f28419497f9722a3daafe3b4186f6b6457e060405160405180910390a36003805473ffffffffffffffffffffffffffffffffffffffff1916600160a060020a0392909216919091179055565b600082821115610b9f57fe5b50900390565b600082820183811015610bb457fe5b93925050505600a165627a7a7230582079e2c95125c4edc69116e9bbe837c9d2deb34e47f174868eb3fe606783dc19dd0029",
  "source": "pragma solidity ^0.4.18;\n\nimport './ZTaylorCoin.sol';\nimport 'zeppelin-solidity/contracts/crowdsale/CappedCrowdsale.sol';\nimport 'zeppelin-solidity/contracts/crowdsale/RefundableCrowdsale.sol';\n\ncontract ZTaylorCoinCrowdsale is CappedCrowdsale, RefundableCrowdsale {\n\n  // ICO Stage\n  // ============\n  enum CrowdsaleStage { PreICO, ICO }\n  CrowdsaleStage public stage = CrowdsaleStage.PreICO; // By default it's Pre Sale\n  // =============\n\n  // Token Distribution\n  // =============================\n  uint256 public maxTokens = 100000000000000000000; // There will be total 100 ZTaylorCoin Tokens\n  uint256 public tokensForEcosystem = 20000000000000000000;\n  uint256 public tokensForTeam = 10000000000000000000;\n  uint256 public tokensForBounty = 10000000000000000000;\n  uint256 public totalTokensForSale = 60000000000000000000; // 60 ZTaylorCoins will be sold in Crowdsale\n  uint256 public totalTokensForSaleDuringPreICO = 20000000000000000000; // 20 out of 60 ZTaylorCoins will be sold during PreICO\n  // ==============================\n\n  // Amount raised in PreICO\n  // ==================\n  uint256 public totalWeiRaisedDuringPreICO;\n  // ===================\n\n\n  // Events\n  event EthTransferred(string text);\n  event EthRefunded(string text);\n\n\n  // Constructor\n  // ============\n  function ZTaylorCoinCrowdsale(uint256 _startTime, uint256 _endTime, uint256 _rate, address _wallet, uint256 _goal, uint256 _cap) CappedCrowdsale(_cap) FinalizableCrowdsale() RefundableCrowdsale(_goal) Crowdsale(_startTime, _endTime, _rate, _wallet) public {\n      require(_goal <= _cap);\n  }\n  // =============\n\n  // Token Deployment\n  // =================\n  function createTokenContract() internal returns (MintableToken) {\n    return new ZTaylorCoin(); // Deploys the ERC20 token. Automatically called when crowdsale contract is deployed\n  }\n  // ==================\n\n  // Crowdsale Stage Management\n  // =========================================================\n\n  // Change Crowdsale Stage. Available Options: PreICO, ICO\n  function setCrowdsaleStage(uint value) public onlyOwner {\n\n      CrowdsaleStage _stage;\n\n      if (uint(CrowdsaleStage.PreICO) == value) {\n        _stage = CrowdsaleStage.PreICO;\n      } else if (uint(CrowdsaleStage.ICO) == value) {\n        _stage = CrowdsaleStage.ICO;\n      }\n\n      stage = _stage;\n\n      if (stage == CrowdsaleStage.PreICO) {\n        setCurrentRate(5);\n      } else if (stage == CrowdsaleStage.ICO) {\n        setCurrentRate(2);\n      }\n  }\n\n  // Change the current rate\n  function setCurrentRate(uint256 _rate) private {\n      rate = _rate;\n  }\n\n  // ================ Stage Management Over =====================\n\n  // Token Purchase\n  // =========================\n  function () external payable {\n      uint256 tokensThatWillBeMintedAfterPurchase = msg.value.mul(rate);\n      if ((stage == CrowdsaleStage.PreICO) && (token.totalSupply() + tokensThatWillBeMintedAfterPurchase > totalTokensForSaleDuringPreICO)) {\n        msg.sender.transfer(msg.value); // Refund them\n        EthRefunded(\"PreICO Limit Hit\");\n        return;\n      }\n\n      buyTokens(msg.sender);\n\n      if (stage == CrowdsaleStage.PreICO) {\n          totalWeiRaisedDuringPreICO = totalWeiRaisedDuringPreICO.add(msg.value);\n      }\n  }\n\n  function forwardFunds() internal {\n      if (stage == CrowdsaleStage.PreICO) {\n          wallet.transfer(msg.value);\n          EthTransferred(\"forwarding funds to wallet\");\n      } else if (stage == CrowdsaleStage.ICO) {\n          EthTransferred(\"forwarding funds to refundable vault\");\n          super.forwardFunds();\n      }\n  }\n  // ===========================\n\n  // Finish: Mint Extra Tokens as needed before finalizing the Crowdsale.\n  // ====================================================================\n\n  function finish(address _teamFund, address _ecosystemFund, address _bountyFund) public onlyOwner {\n\n      require(!isFinalized);\n      uint256 alreadyMinted = token.totalSupply();\n      require(alreadyMinted < maxTokens);\n\n      uint256 unsoldTokens = totalTokensForSale - alreadyMinted;\n      if (unsoldTokens > 0) {\n        tokensForEcosystem = tokensForEcosystem + unsoldTokens;\n      }\n\n      token.mint(_teamFund,tokensForTeam);\n      token.mint(_ecosystemFund,tokensForEcosystem);\n      token.mint(_bountyFund,tokensForBounty);\n      finalize();\n  }\n  // ===============================\n\n  // REMOVE THIS FUNCTION ONCE YOU ARE READY FOR PRODUCTION\n  // USEFUL FOR TESTING `finish()` FUNCTION\n  function hasEnded() public view returns (bool) {\n    return true;\n  }\n}",
  "sourcePath": "/Users/ztaylor/projects/ztaylorcoin/contracts/ZTaylorCoinCrowdsale.sol",
  "compiler": {
    "name": "solc",
    "version": "0.4.19+commit.c4cbbb05.Emscripten.clang"
  },
  "schemaVersion": "1.0.1",
  "updatedAt": "2018-02-21T05:41:48.133Z"
}